:100000000C9462000C948A000C948A000C948A0070
:100010000C948A000C948A000C948A000C948A0038
:100020000C948A000C948A000C948A000C948A0028
:100030000C948A000C948A000C948A000C948A0018
:100040000C94140C0C948A000C94E20B0C94BC0BD2
:100050000C948A000C948A000C948A000C948A00F8
:100060000C945E0C0C948A00000000002400270011
:100070002A0000000000250028002B0000000008D6
:10008000000201000003040700000000000000005F
:1000900000000000230026002900040404040404D6
:1000A0000404020202020202030303030303010227
:1000B00004081020408001020408102001020408F6
:1000C0001020C20D11241FBECFEFD8E0DEBFCDBF80
:1000D00025E0AAE5B3E001C01D92A338B207E1F71D
:1000E00013E0A0E0B1E0E2EDF2E302C005900D9272
:1000F000AA35B107D9F710E0C2E6D0E004C02197D5
:10010000FE010E942D18C136D107C9F70E94470E83
:100110000C9467190C9400009091AF048091AE0488
:100120002FEF3FEF981748F4E92FF0E0E257FB4F2D
:10013000208130E09F5F9093AF04C90108959091B2
:10014000AF048091AE042FEF3FEF981748F4E92FEA
:10015000F0E0E257FB4F208130E09F5F9093AF04C7
:10016000C901089508950895AF92BF92CF92DF928A
:10017000EF92FF920F931F93CF93DF936C017B015C
:100180008B01040F151FEB015E01AE18BF08C017ED
:10019000D10759F06991D601ED91FC910190F08160
:1001A000E02DC6010995892B79F7C501DF91CF9123
:1001B0001F910F91FF90EF90DF90CF90BF90AF9085
:1001C0000895FC01538D448D252F30E0842F90E05D
:1001D000821B930B541710F0CF9608950197089542
:1001E000FC01918D828D981761F0A28DAE0FBF2F0B
:1001F000B11D5D968C91928D9F5F9F73928F90E061
:1002000008958FEF9FEF0895FC01918D828D9817CF
:1002100031F0828DE80FF11D858D90E008958FEF0C
:100220009FEF0895FC01918D228D892F90E0805CD5
:100230009F4F821B91098F739927089580EB94E05B
:100240000E94120121E0892B09F420E0822F0895F9
:1002500080E090E0892B29F00E941E0181110C940E
:1002600000000895FC01A48DA80FB92FB11DA35A59
:10027000BF4F2C91848D90E001968F739927848FC6
:10028000A689B7892C93A089B1898C9183708064E9
:100290008C93938D848D981306C00288F389E02D8A
:1002A00080818F7D80830895EF92FF920F931F933B
:1002B000CF93DF93EC0181E0888F9B8D8C8D981319
:1002C0001AC0E889F989808185FF15C09FB7F89425
:1002D000EE89FF896083E889F98980818370806471
:1002E00080839FBF81E090E0DF91CF911F910F91BC
:1002F000FF90EF900895F62E0B8D10E00F5F1F4FCB
:100300000F731127E02E8C8D8E110CC00FB607FCD9
:10031000FACFE889F989808185FFF5CFCE010E9467
:100320003201F1CFEB8DEC0FFD2FF11DE35AFF4FA2
:10033000F0829FB7F8940B8FEA89FB8980818062F5
:10034000CFCFCF93DF93EC01888D8823B9F0AA89B2
:10035000BB89E889F9898C9185FD03C0808186FD80
:100360000DC00FB607FCF7CF8C9185FFF2CF8081CF
:1003700085FFEDCFCE010E943201E9CFDF91CF9111
:100380000895833081F028F4813099F08230A9F00B
:1003900008958730A9F08830C9F08430B1F4809195
:1003A00080008F7D03C0809180008F7780938000D4
:1003B000089584B58F7784BD089584B58F7DFBCF74
:1003C0008091B0008F778093B00008958091B00045
:1003D0008F7DF9CFCF93DF93282F30E0F901E458D8
:1003E000FF4F8491F901E255FF4FD491F901E65690
:1003F000FF4FC491CC23A1F081110E94C101EC2FC9
:10040000F0E0EE0FFF1FE057FF4FA591B491EC9184
:10041000ED2381E090E009F480E0DF91CF91089531
:1004200080E090E0FACF1F93CF93DF93282F30E046
:10043000F901E458FF4F8491F901E255FF4FD4913F
:10044000F901E656FF4FC491CC23A9F0162F811174
:100450000E94C101EC2FF0E0EE0FFF1FEE58FF4F9E
:10046000A591B4918FB7F894EC91111108C0D09573
:10047000DE23DC938FBFDF91CF911F910895DE2B98
:10048000F8CFCF93DF9390E0FC01E255FF4F24912A
:1004900086569F4FFC0184918823C9F090E0880F15
:1004A000991FFC01E859FF4FA591B491FC01EE584A
:1004B000FF4FC591D49161110DC09FB7F8948C91F5
:1004C000209582238C938881282328839FBFDF91E6
:1004D000CF910895623051F49FB7F8943C91822FE8
:1004E000809583238C93E8812E2BEFCF8FB7F894E0
:1004F000EC912E2B2C938FBFEACF3FB7F8948091CD
:10050000A6039091A703A091A803B091A90326B5D3
:10051000A89B05C02F3F19F00196A11DB11D3FBF3B
:10052000BA2FA92F982F8827BC01CD01620F711D0A
:10053000811D911D42E0660F771F881F991F4A9504
:10054000D1F708958F929F92AF92BF92CF92DF9290
:10055000EF92FF924B015C010E947D026B017C01D6
:100560000E947D026C197D098E099F09683E7340C7
:1005700081059105A8F321E0821A9108A108B1082C
:1005800088EEC80E83E0D81EE11CF11C8114910492
:10059000A104B10429F7FF90EF90DF90CF90BF90B6
:1005A000AF909F908F9008952FB7F8946091A20319
:1005B0007091A3038091A4039091A5032FBF089588
:1005C00020917E03260F3327331F21323105ECF4AF
:1005D00020918804FC0190E080E0243069F082E002
:1005E0000895A0917E032191AC01425A5C4FA40F63
:1005F000B52FB11D2C930196861798F380917E0339
:10060000680F60937E0380E0089581E00895109262
:10061000880481E0809387041092820461E082E183
:100620000E94130261E083E10E941302E9EBF0E013
:1006300080818E7F808380818D7F808388E480931A
:10064000B80085E48093BC000895CF93DF9391E0D8
:1006500090935D038823B9F0C091B800D091BA009F
:100660008091BC008A7B8093BC0060E082E10E94A4
:10067000130260E083E10E9413020E940703D093FB
:10068000BA00C093B800DF91CF910895CF92DF9266
:10069000EF92FF920F931F93CF93DF93D09161045A
:1006A00081E0D13208F09CC0C09160040E947D02BC
:1006B0006B017C018091880481116CC082E0809381
:1006C000880481E0809387048FEF809386041092E2
:1006D0008504D0938404A0E4B4E0E2E6F4E080E092
:1006E000D8138DC01092830480918304CC0FC82B43
:1006F000C093830480918204813009F084C01092F9
:1007000082040E947D026B017C01809183048093AE
:10071000BB0080918A0490918B04A0918C04B091CD
:100720008D04892B8A2B8B2BA1F00E947D020091D6
:100730008A0410918B0420918C0430918D046C19E3
:100740007D098E099F09061717072807390708F43E
:1007500042C08091BC0083FDD8CF85EC8093BC0063
:100760000E947D026B017C0180918804823009F433
:100770004CC0809186048F3F09F469C08091860443
:10078000803209F466C080918604803309F463C026
:1007900084E026C080918A0490918B04A0918C04FF
:1007A000B0918D04892B8A2B8B2B09F483CF0E9467
:1007B0007D0200918A0410918B0420918C04309169
:1007C0008D046C197D098E099F09061717072807E4
:1007D000390708F06FCF809189040E94250385E0D6
:1007E00010923F041092610410923E04DF91CF9169
:1007F0001F910F91FF90EF90DF90CF9008959D9102
:1008000091938F5F6DCF85EEA9CF80918A049091EF
:100810008B04A0918C04B0918D04892B8A2B8B2B97
:1008200009F4A2CF0E947D0200918A0410918B04EA
:1008300020918C0430918D046C197D098E099F09DB
:10084000061717072807390708F08ECFC4CF80E0B6
:10085000C7CF82E0C5CF83E0C3CF0895E091AF0456
:100860008091AE04E81730F4F0E0E257FB4F80814E
:1008700090E008958FEF9FEF08958091AE049091DE
:10088000AF04891B990B0895CF92DF92EF92FF92EC
:100890000F931F93CF93DF937C01CB018A012091AB
:1008A0003E04222389F0EB016B01C40ED51ECC154A
:1008B000DD0569F06991D701ED91FC910190F0811E
:1008C000E02DC7010995F3CF642F0E94E002C80113
:1008D000DF91CF911F910F91FF90EF90DF90CF901C
:1008E0000895CF93DF931F92CDB7DEB76983209130
:1008F0003E042223F9F020916104203258F021E0D7
:1009000030E0FC013383228390E080E00F90DF91A0
:10091000CF91089580913F04E82FF0E0E05CFB4F19
:10092000998190838F5F80933F048093610481E07D
:1009300090E0ECCF61E0CE0101960E94E002F7CF9B
:10094000682F8DE495E00C94710490E080E00895A8
:10095000FC0183898B3051F480E492E4AFE0B0E095
:10096000FB0184A395A3A6A3B7A3089580E894E808
:10097000AEE1B0E0F5CFCF92DF92EF92FF92CF934E
:10098000DF93DC011796CC911797D0E06111DC2F33
:1009900018962C91189730E0220F331F20573F4FA5
:1009A00050E040E0F90185919491FC01F080BA019A
:1009B00090E080E0EF2DEC23ED1310C04F5F5F4F10
:1009C0001D96CD90DD90ED90FC9050976C157D05B7
:1009D0008E059F0538F36FEF7FEFCB01DF91CF914D
:1009E000FF90EF90DF90CF9008958F929F92AF92FB
:1009F000BF92CF92DF92EF92FF920F931F93CF930C
:100A0000DF93CDB7DEB7C054D1400FB6F894DEBF48
:100A10000FBECDBF8C010E94D402F801C184D284E4
:100A2000E384F4849B01AC012C193D094E095F0954
:100A300069017A0130EDC31637E0D306E104F10411
:100A4000A8F48189C05CDE4F0FB6F894DEBF0FBEFC
:100A5000CDBFDF91CF911F910F91FF90EF90DF906D
:100A6000CF90BF90AF909F908F90089561877287CD
:100A7000838794871482138212821182108262E02B
:100A800085810E94410261E070E080E090E00E9478
:100A9000A20261E0F80185810E94410260E0F80154
:100AA00085810E941302F80186818551823028F5E4
:100AB0008BE291E10197F1F762E0F80185810E94F4
:100AC0004102F801828990E08230910538F0880F68
:100AD000991F880F991F05970197F1F7F89460E027
:100AE000C8010E94BB046F3F7F4F8F4F9F4F61F43F
:100AF000F801118A789480E0A5CF64E170E080E08D
:100B000090E00E94A202D8CF61E0C8010E94BB041D
:100B10006F3F7F4F8F4F9F4F59F39E012F5F3F4F86
:100B200079015E013FEBA31A3EEFB30A670160E073
:100B3000C8010E94BB04F6016083718382839383A2
:100B400061E0C8010E94BB04F6016483758386835B
:100B50009783F8E0CF0ED11CCA14DB0441F77894D8
:100B600030E020E0F70180809180A280B380448152
:100B7000558166817781FFEF8F169F06AF06BF060E
:100B800031F04F3F8FEF58076807780719F4F801E5
:100B9000118AB1CFF90183E0F595E7958A95E1F7E0
:100BA000E00FF11F8081880F84169506A606B70610
:100BB000F0F080832F5F3F4FF8E0EF0EF11C2832FA
:100BC000310581F6F801448120818181280F332786
:100BD000331F8281280F311D8381820F932F911D36
:100BE00099274817190699F681E0818B2BCF8160F0
:100BF000E0CF08950895FC0101900020E9F73197B6
:100C0000AF01481B590BBC0180EB94E00C94B4007D
:100C10008F929F92AF92BF920F931F93CF93DF93C8
:100C2000CDB7DEB7A1970FB6F894DEBF0FBECDBF2C
:100C300019A2423008F44AE08E010F5D1F4F842E46
:100C4000912CB12CA12CA50194010E940B18E62F28
:100C5000B901CA01EA30F4F4E05DD801EE938D01E8
:100C6000232B242B252B79F790E080E0109719F0A7
:100C7000CD010E94FB05A1960FB6F894DEBF0FBE12
:100C8000CDBFDF91CF911F910F91BF90AF909F90FB
:100C90008F900895E95CE1CF0C94FB05CF93DF932F
:100CA0000E94FB05EC0186E491E00E94FB058C0F9D
:100CB0009D1FDF91CF910895CF92DF92EF92FF9227
:100CC000CF93DF936C01990FEE08FF08F7FE19C070
:100CD0006DE280EB94E00E945401EC0166277727D7
:100CE000CB016C197D098E099F094AE00E94080614
:100CF0008C0F9D1FDF91CF91FF90EF90DF90CF90F1
:100D000008954AE0C701B601DF91CF91FF90EF90BF
:100D1000DF90CF900C940806CF93DF930E945C067F
:100D2000EC0186E491E00E94FB058C0F9D1FDF9192
:100D3000CF91089591E069270E94130289E491E020
:100D40000E944C068CE00E94EA010C948C06CF9223
:100D5000DF92EF92FF920F931F93CF93DF93D82FE1
:100D60000E947D026B017C0180918804811165C025
:100D7000CD2F81E080938804809387049FEF909328
:100D80008604109285049D0F9093840480938304BD
:100D900080918304806D80938304809182048130EC
:100DA00009F07FC0109282040E947D026B017C01D9
:100DB000809183048093BB0080918A0490918B047E
:100DC000A0918C04B0918D04892B8A2B8B2BA1F0E0
:100DD0000E947D0200918A0410918B0420918C0462
:100DE00030918D046C197D098E099F09061717072C
:100DF0002807390708F442C08091BC0083FDD8CF92
:100E000085EC8093BC000E947D026B017C01809187
:100E10008804813009F447C0809185048D1710F44F
:100E2000C0918504A2E6B4E0EEE8F4E080E08C171F
:100E300051F19D9191938F5FFACF80918A049091A7
:100E40008B04A0918C04B0918D04892B8A2B8B2B61
:100E500009F48ACF0E947D0200918A0410918B04CC
:100E600020918C0430918D046C197D098E099F09A5
:100E7000061717072807390708F076CF80918904ED
:100E80000E942503C0E01092AF04C093AE048C2FE3
:100E9000DF91CF911F910F91FF90EF90DF90CF9056
:100EA000089585EEAECF80918A0490918B04A09135
:100EB0008C04B0918D04892B8A2B8B2B09F4A7CF3E
:100EC0000E947D0200918A0410918B0420918C0471
:100ED00030918D046C197D098E099F09061717073B
:100EE0002807390708F093CFC9CFCF93DF93C1E02C
:100EF000C0933E0488E68093600410923F041092F1
:100F0000610486E090E00E94A0040E94460381E014
:100F100090E00E94A7060E949F00C0933E0410929A
:100F20003F041092610485E090E00E94A0040E94BA
:100F3000460381E090E00E94A7060E949F00881F60
:100F40008827881F80935C03C0933E0410923F045F
:100F50001092610484E090E00E94A0040E94460385
:100F600081E090E00E94A7060E949F00C0933E048B
:100F700010923F041092610482E090E00E94A0046D
:100F80000E94460381E090E00E94A7060E949F0015
:100F90009C0181E0A9014074552726FF80E08093E1
:100FA0005B03922F92959F70822F8F70452B09F4CF
:100FB00050C025FB222720F920935A0391702AE084
:100FC000929F800D112490E0909335048093340417
:100FD000D1E0D0933E0410923F041092610481E06E
:100FE00090E00E94A0040E94460381E090E00E94ED
:100FF000A7060E949F00982F92959F70CAE08F705D
:101000009C9F800D112490E09093270480932604E8
:10101000D0933E0410923F041092610490E080E06F
:101020000E94A0040E94460381E090E00E94A7066F
:101030000E949F00982F92959F708F709C9F800DAB
:10104000112490E09093250480932404DF91CF91A4
:1010500008959370B4CFCF93DF934AE00E940806BF
:10106000EC0186E491E00E94FB058C0F9D1FDF914F
:10107000CF9108954F925F926F927F928F929F923D
:10108000AF92BF92CF92DF92EF92FF920F931F9396
:10109000CF936B017C01742EAC019B010E9406185A
:1010A000882399F083E691E0CF911F910F91FF90F3
:1010B000EF90DF90CF90BF90AF909F908F907F90F8
:1010C0006F905F904F900C94FB0546015701E89498
:1010D000B7F82FEF3FEF4FE75FE7C501B4010E947C
:1010E000061881110DC02FEF3FEF4FE75FE7C501F5
:1010F000B4010E94AE1518161CF487E691E0D4CF17
:101100002FEF3FEF4FE75FE4C701B6010E940118E0
:1011100018161CF48BE691E0C7CF2FEF3FEF4FE797
:101120005FECC701B6010E94AE1587FDF3CF20E04A
:1011300030E0A901C701B6010E94AE1510E000E041
:1011400087FF0AC06DE280EB94E00E9454018C019D
:10115000F7FAF094F7F8F094C0E060E070E080E017
:101160009FE37C1641F020E030E040E251E40E9431
:101170005917CF5FF6CFA70196010E94ED162B01FC
:101180003C010E94D2174B015C014AE00E94080614
:101190007C01E00EF11ECC23C1F1C501B4010E9417
:1011A000B3159B01AC01C301B2010E94EC164B01C7
:1011B0005C016EE280EB94E00E945401E80EF91E9F
:1011C000C15018F120E030E040E251E4C501B40123
:1011D0000E9414162B013C010E94D2174B01B12C26
:1011E000A12C4AE0C501B4010E940806E80EF91ED0
:1011F000C501B4010E94B3159B01AC01C301B2014A
:101200000E94EC164B015C01DBCFC701CF911F910F
:101210000F91FF90EF90DF90CF90BF90AF909F9095
:101220008F907F906F905F904F90089585ED8093A1
:10123000BC0080918A0490918B04A0918C04B091A1
:101240008D040796A11DB11D23E0B695A79597952E
:1012500087952A95D1F72091BC0024FD03C01092F8
:101260008804089540918A0450918B0460918C0405
:1012700070918D04452B462B472B69F30097A105F0
:10128000B10541F025E32A95F1F700000197A10986
:10129000B109E1CF809189040C942503CF92DF92AC
:1012A000EF92FF920F931F93CF93DF938C01EB018B
:1012B000FB01349680E2DF011D928A95E9F784E212
:1012C00090E0A0E0B0E088839983AA83BB83F80113
:1012D00085819681A781B0858C839D83AE83BF83F2
:1012E0008CE090E0A0E0B0E088879987AA87BB8770
:1012F0000E94D402688B798B8A8B9B8BD8011396C2
:101300000D911C91C8010E94F504882349F0F80151
:1013100086818B3028F08D3040F08551823070F11D
:1013200060E070E080EC9FE71BC0618170E090E0BE
:1013300080E00E94B5152DEC3CEC4CEC5DE30E9486
:1013400014166B017C01F801608170E090E080E090
:101350000E94B5159B01AC01C701B6010E94ED16B4
:101360006C8B7D8B8E8B9F8B81E0DF91CF911F915A
:101370000F91FF90EF90DF90CF9008956081718181
:1013800076276727762790E080E00E94B3152DEC42
:101390003CEC4CEC5DE30E941416E2CF8F929F92DE
:1013A000AF92BF92EF92FF921F93CF93DF937C0196
:1013B000EB01FB01349680E2DF011D928A95E9F78B
:1013C00084E290E0A0E0B0E088839983AA83BB83A5
:1013D000F70185819681A781B0858C839D83AE833B
:1013E000BF838DE090E0A0E0B0E088879987AA876E
:1013F000BB870E94D402688B798B8A8B9B8BD70129
:101400001396ED90FC90C7010E94F504882341F0EB
:10141000F70186818C3009F455C038F48B30E1F047
:1014200060E070E080EC9FE73EC085518230C0F7FD
:101430001281612F70E0762F662766277F77838180
:10144000682B90E080E00E94B3152DEC3CEC4CEC56
:101450005DE30E94141651C0628170E090E080E06C
:101460000E94B3154B015C01F701138117FF0AC0FD
:10147000AC019B0160E070E080E89FEB0E94EC16FD
:101480004B015C011F70612F70E090E080E00E94D2
:10149000B5152DEC3CEC4CEC5DE30E941416A50157
:1014A00094010E94ED166C8B7D8B8E8B9F8B81E05F
:1014B000DF91CF911F91FF90EF90BF90AF909F90E1
:1014C0008F9008951281612F70E090E080E00E947B
:1014D000B3154B015C01F70163816F7070E090E020
:1014E00080E00E94B5152DEC3CEC4CEC5DE30E94D5
:1014F0001416A50194010E94ED1617FFD4CF905841
:10150000D2CFCF93DF93EB01FC0183894BE050E016
:1015100065E771E08C30C1F058F44BE050E06FE6C5
:1015200071E08B3089F04BE050E067E871E00CC06F
:101530004BE050E06BE771E0853131F04BE050E07B
:1015400061E871E0863179F7CE010E9458191B8657
:10155000DF91CF9108950F931F93CF93DF938C0169
:10156000EB0188E2DB011D928A95E9F7F80183819E
:1015700094810E94810A81E090E0A0E0B0E08C8735
:101580009D87AE87BF87F80185819681A781B08549
:10159000888B998BAA8BBB8B8CE090E0A0E0B0E0AD
:1015A0008C8B9D8BAE8BBF8BBE01838194810E94FF
:1015B000A804D8011396ED91FC9183898C3009F42D
:1015C00041C078F48B3009F1188E198E1A8E1B8E5B
:1015D0001C8E1D8E1E8E1F8E18A219A21AA21BA26F
:1015E0002CC08551823080F780E090E0A8ECB2E416
:1015F000888F998FAA8FBB8F1C8E1D8E1E8E1F8E7B
:101600008DEC9CECACECBDE314C080E090E0A0EA73
:10161000B2E4888F998FAA8FBB8F80E090E0A0EA18
:10162000B1E48C8F9D8FAE8FBF8F80E090E0A0EAF9
:10163000B0E488A399A3AAA3BBA3DF91CF911F9184
:101640000F91089580E090E0AEEBB2E4E2CF0F930B
:101650001F93CF93DF938C01EB0188E2DB011D9296
:101660008A95E9F7F801838194810E94810A81E0DB
:1016700090E0A0E0B0E08C879D87AE87BF87F8013F
:1016800085819681A781B085888B998BAA8BBB8B2E
:101690008DE090E0A0E0B0E08C8B9D8BAE8BBF8B9B
:1016A000BE01838194810E94A804D8011396ED9114
:1016B000FC9183898C3091F178F48B30B1F0188EE5
:1016C000198E1A8E1B8E1C8E1D8E1E8E1F8E18A2BA
:1016D00019A21AA21BA21DC08531A9F1863179F782
:1016E00080E090E0AAEFB2E432C080E090E0A8E4AD
:1016F000B2E4888F998FAA8FBB8F1C8E1D8E1E8E91
:101700001F8E80E090E0A0E0B0E488A399A3AAA394
:10171000BBA3DF91CF911F910F91089580E090E0DE
:10172000A0E7B2E4888F998FAA8FBB8F80E090E00A
:10173000A0EAB1EC8C8F9D8FAE8FBF8F80E090E0E0
:10174000A0E0BFE3E2CF80E090E0A0EAB2E4888FBF
:10175000998FAA8FBB8F80E090E0A0E2B2EC8C8FD3
:101760009D8FAE8FBF8F8DEC9CECACECBDE3CDCFED
:101770000C94CF180C94CF181F920F920FB60F92A3
:1017800011242F933F934F935F936F937F938F9386
:101790009F93AF93BF93EF93FF9380EB94E00E94EE
:1017A0003201FF91EF91BF91AF919F918F917F9106
:1017B0006F915F914F913F912F910F900FBE0F90BE
:1017C0001F9018951F920F920FB60F9211242F930E
:1017D0008F939F93EF93FF93E091C004F091C10426
:1017E0008081E091C604F091C70482FD1BC0908106
:1017F0008091C9048F5F8F732091CA04821741F0D2
:10180000E091C904F0E0E055FB4F958F8093C90447
:10181000FF91EF919F918F912F910F900FBE0F909D
:101820001F9018958081F4CF1F920F920FB60F92E0
:1018300011242F933F938F939F93AF93BF938091E6
:10184000A2039091A303A091A403B091A5033091AA
:10185000A10323E0230F2D3758F50196A11DB11DDB
:101860002093A1038093A2039093A303A093A403C6
:10187000B093A5038091A6039091A703A091A8031C
:10188000B091A9030196A11DB11D8093A603909369
:10189000A703A093A803B093A903BF91AF919F9111
:1018A0008F913F912F910F900FBE0F901F90189521
:1018B00026E8230F0296A11DB11DD2CF1F920F92D1
:1018C0000FB60F9211242F933F934F935F936F9313
:1018D0007F938F939F93AF93BF93EF93FF938091E9
:1018E000B900887F803609F44AC0F0F5883209F4DF
:1018F000A7C018F5803109F49BC0B8F4882309F417
:10190000F9C0883009F494C0FF91EF91BF91AF9175
:101910009F918F917F916F915F914F913F912F9107
:101920000F900FBE0F901F901895883109F488C052
:10193000803251F78093860414C0803409F49DC02E
:1019400040F48033B9F38833F9F68093860485EC4C
:10195000B0C0803509F485C0883509F496C0883454
:1019600099F60E941609D0CF883909F48CC038F551
:10197000883729F050F4883611F0803729F683E053
:10198000809388041092A00357C0883809F47BC064
:10199000803919F0803809F0B7CF8091A0038032E8
:1019A00008F071C0E091A00381E08E0F8093A00346
:1019B0008091BB00F0E0E058FC4F80833DC0803B4D
:1019C00039F0E0F4803A09F479C0883A09F09CCF04
:1019D00084E08093880410927F0310927E03E0914C
:1019E000AC03F091AD03099580917E0381110FC086
:1019F00081E080937E0310925E0309C0803C09F46D
:101A0000A6CF883C09F4A3CF883B09F07DCFE091B5
:101A10007F0381E08E0F80937F03F0E0E25AFC4F5A
:101A200080818093BB0090917F0380917E0329C0C9
:101A3000809183048093BB0085EC8093BC0064CFCD
:101A40009091850480918404981758F5E09185045D
:101A500081E08E0F80938504F0E0EE59FB4F80818A
:101A6000E9CFE091850481E08E0F80938504809119
:101A7000BB00F0E0EE59FB4F80839091850480918C
:101A800084049817C8F285E8D8CFE091850481E0F6
:101A90008E0F809385048091BB00F0E0EE59FB4FE0
:101AA00080838091870481115CCF81E080938204E0
:101AB00084EA8093BC001092880426CF85EC809342
:101AC000BC00109288048091A003803230F4E09131
:101AD000A003F0E0E058FC4F10826091A00370E09A
:101AE000E091AA03F091AB0380E893E0099510928E
:101AF000A0030ACF1092860434CFCF92DF92EF92E8
:101B0000FF920F931F93E82FF92F05C00150110981
:101B10002109310961F1908196239417B9F305C029
:101B2000015011092109310911F190819623941373
:101B3000F7CFC12CD12CE12CF12C0AC08FEFC81AA1
:101B4000D80AE80AF80A0C151D052E053F0579F09C
:101B500080818623841791F36C2D7D2D8E2D9F2DF2
:101B60001F910F91FF90EF90DF90CF90089560E06C
:101B700070E080E090E01F910F91FF90EF90DF9078
:101B8000CF900895E0EBF4E01382128288EE93E0A8
:101B9000A0E0B0E084839583A683B7832AE031E098
:101BA0003183208325EC30E03587248724EC30E036
:101BB0003787268720EC30E0318B208B21EC30E01A
:101BC000338B228B22EC30E0358B248B26EC30E0FB
:101BD000378B268B118E128E138E148EEDE4F5E06A
:101BE0001382128284839583A683B7838CE191E06C
:101BF00091838083A9E5B5E084E015968C931597D1
:101C000086E116968C931697E2EBF0E0E491179636
:101C1000EC931797EEE9F0E0E4911896EC9318979F
:101C200040E85EE360E070E01D964D935D936D9338
:101C30007C93509753968C9353978CE391E05596F1
:101C40009C938E9354970A2E1B2E58961C920E929C
:101C5000112457974FEF5FEFBA0159964D935D935B
:101C60006D937C935C978EE291E05E969C938E934D
:101C70005D970A2E1B2E91961C920E92112490971E
:101C800092964D935D936D937C9395970895CF9322
:101C9000DF93CDB7DEB729970FB6F894DEBF0FBE3E
:101CA000CDBF789484B5826084BD84B5816084BDE5
:101CB00085B5826085BD85B5816085BD80916E00EA
:101CC000816080936E00109281008091810082601B
:101CD0008093810080918100816080938100809158
:101CE00080008160809380008091B1008460809347
:101CF000B1008091B00081608093B00080917A0043
:101D0000846080937A0080917A00826080937A0068
:101D100080917A00816080937A0080917A00806857
:101D200080937A001092C100E091C004F091C10448
:101D300082E08083E091BC04F091BD041082E091C8
:101D4000BE04F091BF048FEC80831092C804E09130
:101D5000C404F091C50486E08083E091C204F09150
:101D6000C304808180618083E091C204F091C30448
:101D7000808188608083E091C204F091C3048081F7
:101D800080688083E091C204F091C30480818F7DDC
:101D900080831092AF041092AE0410923F04109210
:101DA00061040E94070382EB90E09093AD0380935F
:101DB000AC0383EB90E09093AB038093AA0370E0B5
:101DC00060E08BE090E00E949A0670E060E088E0BE
:101DD00090E00E949A0670E060E087E090E00E9448
:101DE0009A0670E060E08CE090E00E949A0661E064
:101DF0008CE00E94410261E08BE00E94410261E0C0
:101E000088E00E94410261E087E00E94410260EDAB
:101E100077E080E090E00E94A20280E090E0A8E8F5
:101E2000B1E480930C0490930D04A0930E04B0933E
:101E30000F0480E090E0A8EBB1E480930804909355
:101E40000904A0930A04B0930B040E94D402609387
:101E50003A0470933B0480933C0490933D0488E0E3
:101E600090E090932B0480932A0480E190E090937B
:101E70002904809328048FE090E0909307048093D6
:101E80000604909305048093040480E69AEEA0E093
:101E9000B0E08093360490933704A0933804B09355
:101EA00039040E9475078CE891E00E944C068091ED
:101EB0003404909135040E945C068DE991E00E9403
:101EC0004C0680912604909127040E945C068DE9BF
:101ED00091E00E944C0680912404909125040E9478
:101EE0008C068FE991E00E944C0680912A04909123
:101EF0002B040E948C068FEA91E00E944C06809190
:101F00002804909129040E948C06809134049091B9
:101F1000350420912A0430912B04821793070CF486
:101F2000EAC32091280430912904821793070CF00A
:101F300022C4809134049091350420912A04309178
:101F40002B04821793070CF44FC020912804309182
:101F50002904821793070CF047C070E060E08CE022
:101F600090E00E949A064091260450912704209107
:101F7000340430913504809128049091290441154E
:101F8000510509F4C9C40197821B930B092E000C5B
:101F9000AA0BBB0B80932C0490932D04A0932E04CA
:101FA000B0932F048CE390E0841B950B092E000C5A
:101FB000AA0BBB0B8093200490932104A0932204CE
:101FC000B093230488EF91E00E944C0660912C04AA
:101FD00070912D0480912E0490912F040E942B0863
:101FE0008FE092E00E944E0660912C0470912D04C7
:101FF00080912E0490912F040E94B31520E030E0D0
:1020000040E752E40E9414160E94D2170E94B315B2
:1020100020E030E64AE657E40E9414160E94D217E8
:102020006B017C0120912004309121044091220415
:1020300050912304A0E6BAEE0E94D2166C0D7D1DCD
:102040008E1D9F1D60932C0470932D0480932E048D
:1020500090932F040E942B080E94D40260933004B6
:10206000709331048093320490933304609106049A
:1020700070910704072E000C880B990B0E94B31572
:1020800020E030E64AE657E40E9414160E94D21778
:10209000609318047093190480931A0490931B049E
:1020A0000E94D40260931C0470931D0480931E044C
:1020B00090931F0480E097E9A9E4B1E08093FA03CC
:1020C0009093FB03A093FC03B093FD030E94D40202
:1020D0006093FE037093FF038093000490930104C8
:1020E00062E080915E050E9441020E94D402605D20
:1020F000774081099109609362057093630580932D
:1021000064059093650587E380936B0561E08AE041
:102110000E94410260E089E00E94410260E081E1AA
:102120000E94410298E1292E312C2CE5422E5524A3
:102130005A9429E7622E24E4722E0E94D402C090A1
:102140003A04D0903B04E0903C04F0903D046C19BC
:102150007D098E099F09C0903604D0903704E09025
:102160003804F0903904C616D706E806F90610F5CB
:102170000E94D40260933A0470933B0480933C0421
:1021800090933D0483E292E00E944C060E94D402A8
:102190004AE00E9408068DE292E00E944C068CE024
:1021A0000E94EA010E948C068091340490913504CB
:1021B0000E948C060E94D402C0903004D09031045A
:1021C000E0903204F09033046C197D098E099F0968
:1021D000C0902C04D0902D04E0902E04F0902F0499
:1021E0006C157D058E059F0508F4CFC00E9475070C
:1021F00021E020933E0438E63093600410923F04BF
:102200001092610490E080E00E94A0040E944603C6
:1022100087E090E00E94A7060E949F000E949F0016
:102220000E949F000E949F000E949F000E949F00AA
:102230000E949F0085E392E00E944E06E0903404E5
:10224000F090350480912A0490912B04E816F90649
:102250000CF4A5C38091280490912904E816F9068E
:102260000CF09DC38CE00E94EA01892B09F06BC33E
:1022700070E060E08CE090E00E949A068FE692E0C9
:102280000E944E068CE00E94EA010E948C0680911A
:102290003404909135040E945C068DE991E00E941F
:1022A0004C0680912604909127040E945C068DE9DB
:1022B00091E00E944C0680912404909125040E9494
:1022C0008C06809128049091290420912A04309151
:1022D0002B04821B930B092E000CAA0BBB0B8093C3
:1022E0002C0490932D04A0932E04B0932F041092ED
:1022F0002004109221041092220410922304609171
:102300002C0470912D0480912E0490912F040E9432
:10231000B31520E03AEB4BE55AE40E9414160E94F4
:10232000D21760932C0470932D0480932E04909305
:102330002F040E94D4026093300470933104809380
:1023400032049093330489E792E00E944C06609136
:102350002C0470912D0480912E0490912F040E94E2
:102360002B088BE992E00E944C060E94D402C09098
:102370003004D0903104E0903204F09033046C19B2
:102380007D098E099F090E942B080E94D402C090EB
:102390001C04D0901D04E0901E04F0901F046C19E2
:1023A0007D098E099F09C0901804D0901904E0900F
:1023B0001A04F0901B04C616D706E806F90608F0C2
:1023C00064C180916F058B832CE331E03A832983CC
:1023D00080917005909171059D838C838091720529
:1023E00090917305A0917405B09175058E839F83BC
:1023F000A887B98762ED73E0CE0101960E94270B92
:10240000809178058B838EE291E09A838983809115
:10241000790590917A059D838C8380917B059091BD
:102420007C05A0917D05B0917E058E839F83A88752
:10243000B98762ED73E0CE0101960E94AB0A8091EC
:102440006F058B83ECE3F1E0FA83E98380917005FB
:10245000909171059D838C83809172059091730595
:10246000A0917405B09175058E839F83A887B98765
:102470006EEA73E0CE0101960E94CE09C090C203BD
:10248000D090C303E090C403F090C503A701960168
:10249000C701B6010E940618882309F4D7C24092EA
:1024A000100450921104609212047092130440922E
:1024B000140450921504609216047092170480EC74
:1024C00092E00E944C066091140470911504809172
:1024D00016049091170442E00E943A088BEC92E0B7
:1024E0000E944C06609110047091110480911204B6
:1024F0009091130442E00E943A0886E491E00E9421
:10250000FB05C0901004D0901104E0901204F090EC
:10251000130480900C0490900D04A0900E04B090D1
:102520000F04A5019401C701B6010E9401181816F5
:102530000CF0C4C2209108043091090440910A04AF
:1025400050910B04C701B6010E94AE1587FFB6C2B9
:1025500070E060E088E090E00E949A0670E060E041
:1025600087E090E00E949A068DED92E00E944E0670
:102570008091060490910704092E000CAA0BBB0B56
:102580008093180490931904A0931A04B0931B0429
:10259000609118047091190480911A0490911B04A1
:1025A0000E94B31520E030E64AE657E40E94141674
:1025B0000E94D217609318047093190480931A0430
:1025C00090931B040E94D40260931C0470931D041A
:1025D00080931E0490931F0460E08AE00E9413021F
:1025E00083E090E00197F1F761E08AE00E94130236
:1025F00083E290E00197F1F760E08AE00E94130225
:10260000E7EBF0E06491E3EAF0E08491E82FF0E09A
:10261000EE0FFF1FE057FF4F8591949100E412E405
:102620002FE030E0462F0E947D0D61157105810578
:10263000910529F06F5F7F4F8F4F9F4F9F706A50BA
:102640007109810991090E94B51526E933E44BE02F
:102650005DE30E94141620E030E040E05FE30E945A
:1026600014160E94CB17709303046093020486E350
:1026700093E00E944C0680910204909103040E9412
:102680005C0684E493E00E944E060E94D402C0904F
:10269000FE03D090FF03E0900004F09001046C1959
:1026A0007D098E099F09C090FA03D090FB03E0904A
:1026B000FC03F090FD03C616D706E806F90670F491
:1026C0000E94D4026093FE037093FF038093000482
:1026D0009093010489E493E00E944E0620E030E0EC
:1026E000232B09F42ACD0E941E01882309F425CD4D
:1026F0000E94000022CD8DEB91E00E944E06809159
:10270000260490912704892B09F490C08DEC91E068
:102710000E944E0680912A0490912B0401972091EB
:10272000340430913504821B930B092E000CAA0B44
:10273000BB0B80932C0490932D04A0932E04B09394
:102740002F0420912604309127048CE390E0821B13
:10275000930B092E000CAA0BBB0B809320049093C3
:102760002104A0932204B093230460EA7FE080E078
:1027700090E00E94A20220913404309135048091AF
:102780002A0490912B04821793070CF044C085ED26
:1027900091E00E944E068091260490912704892B97
:1027A00009F47FC08DEC91E00E944E062091340424
:1027B0003091350480912A0490912B04821B930B55
:1027C0004796092E000CAA0BBB0B80932C04909308
:1027D0002D04A0932E04B0932F0420912604309151
:1027E00027048CE390E0821B930B092E000CAA0BAC
:1027F000BB0B8093200490932104A0932204B093F8
:10280000230460912C0470912D0480912E049091EA
:102810002F040E942B0861E070E08CE090E00E94A1
:102820009A0685EE91E00E944E0683CB81ED91E001
:102830000E944E066091340470913504072E000CFE
:10284000880B990B0E94B5159B01AC0160E070E00C
:1028500080EC91E40E94EC166B017C0160912A04EB
:1028600070912B04072E000C880B990B0E94B51554
:102870009B01AC01C701B6010E94ED160E94D21760
:1028800060932C0470932D0480932E0490932F0456
:10289000109220041092210410922204109223041A
:1028A00064CF81ED91E00E944E06609134047091F6
:1028B0003504072E000C880B990B0E94B5159B015F
:1028C000AC0160E070E080EC91E40E94EC166B01DA
:1028D0007C0160912A0470912B04072E000C880B58
:1028E000990B0E94B5159B01AC01C701B6010E946E
:1028F000ED160E94D21760932C0470932D048093E0
:102900002E0490932F041092200410922104109210
:1029100022041092230475CF821B930B092E000C06
:10292000AA0BBB0B80932C0490932D04A0932E0430
:10293000B0932F04109220041092210410922204CC
:102940001092230451CBC7010E945C068DE991E0EF
:102950000E944C0680912604909127040E945C06F8
:102960008DE991E00E944C06809124049091250409
:102970000E948C0684E492E00E944E06109220048D
:1029800010922104109222041092230410922C041D
:1029900010922D0410922E0410922F04B0CC8CE0D3
:1029A0000E94EA010197C1F561E070E08CE090E0DF
:1029B0000E949A0685E592E00E944E068CE00E94F5
:1029C000EA010E948C0680913404909135040E94A3
:1029D0005C068DE991E00E944C068091260490915E
:1029E00027040E945C068DE991E00E944C068091CC
:1029F0002404909125040E948C06809128049091D3
:102A0000290420912A0430912B04821B930BF1019D
:102A1000E81BF90BCF015FCCC7010E945C068DE972
:102A200091E00E944C0680912604909127040E9418
:102A30005C068DE991E00E944C06809124049091FF
:102A400025040E948C068EE592E096CFC092100479
:102A5000D0921104E0921204F09213048091780550
:102A60008B832EE231E03A8329838091790590911E
:102A70007A059D838C8380917B0590917C05A09144
:102A80007D05B0917E058E839F83A887B9876EEA06
:102A900073E0CE0101960E944E098091C20390918D
:102AA000C303A091C403B091C50380931404909311
:102AB0001504A0931604B093170401CDA501940149
:102AC000C701B6010E94AE151816DCF0809104040F
:102AD00090910504092E000CAA0BBB0B80931804DF
:102AE00090931904A0931A04B0931B0461E070E062
:102AF00087E090E00E949A0685E193E00E944E06EE
:102B000047CD209108043091090440910A04509166
:102B10000B04C701B6010E94011887FD39CD8091D1
:102B2000040490910504092E000CAA0BBB0B8093A2
:102B3000180490931904A0931A04B0931B0488E01E
:102B40000E94EA01019709F023CD61E070E088E07E
:102B500090E00E949A0687E293E0D0CF0E94F015A1
:102B600008F481E00895E89409C097FB3EF490953D
:102B70008095709561957F4F8F4F9F4F9923A9F056
:102B8000F92F96E9BB279395F695879577956795E5
:102B9000B795F111F8CFFAF4BB0F11F460FF1BC029
:102BA0006F5F7F4F8F4F9F4F16C0882311F096E9BC
:102BB00011C0772321F09EE8872F762F05C066236A
:102BC00071F096E8862F70E060E02AF09A95660F23
:102BD000771F881FDAF7880F9695879597F90895DC
:102BE000990F0008550FAA0BE0E8FEEF161617061E
:102BF000E807F907C0F012161306E407F50798F086
:102C0000621B730B840B950B39F40A2661F0232B9E
:102C1000242B252B21F408950A2609F4A140A6951A
:102C20008FEF811D811D08950E9427160C94981620
:102C30000E948A1638F00E94911620F0952311F018
:102C40000C9481160C94871611240C94CC160E94B7
:102C5000A91670F3959FC1F3950F50E0551F629F21
:102C6000F001729FBB27F00DB11D639FAA27F00DE5
:102C7000B11DAA1F649F6627B00DA11D661F829F0C
:102C80002227B00DA11D621F739FB00DA11D621FF1
:102C9000839FA00D611D221F749F3327A00D611D0E
:102CA000231F849F600D211D822F762F6A2F1124F0
:102CB0009F5750409AF0F1F088234AF0EE0FFF1F23
:102CC000BB1F661F771F881F91505040A9F79E3F7A
:102CD000510580F00C9481160C94CC165F3FE4F300
:102CE000983ED4F3869577956795B795F795E795D0
:102CF0009F5FC1F7FE2B880F911D9695879597F9D9
:102D0000089597F99F6780E870E060E008959FEF6D
:102D100080EC089500240A94161617061806090672
:102D2000089500240A941216130614060506089541
:102D3000092E0394000C11F4882352F0BB0F40F4C9
:102D4000BF2B11F460FF04C06F5F7F4F8F4F9F4F09
:102D5000089557FD9058440F551F59F05F3F71F08B
:102D60004795880F97FB991F61F09F3F79F08795F2
:102D70000895121613061406551FF2CF4695F1DF7B
:102D800008C0161617061806991FF1CF869571050B
:102D9000610508940895E894BB2766277727CB013F
:102DA00097F908950E94DD16A59F900DB49F900D90
:102DB000A49F800D911D11240895A29FB001B39F7F
:102DC000C001A39F700D811D1124911DB29F700D34
:102DD000811D1124911D08955058BB27AA270E94D8
:102DE00004170C9498160E948A1638F00E949116C7
:102DF00020F039F49F3F19F426F40C9487160EF452
:102E0000E095E7FB0C948116E92F0E94A91658F370
:102E1000BA17620773078407950720F079F4A6F5BF
:102E20000C94CB160EF4E0950B2EBA2FA02D0B01AF
:102E3000B90190010C01CA01A0011124FF27591BFF
:102E400099F0593F50F4503E68F11A16F040A22F05
:102E5000232F342F4427585FF3CF46953795279576
:102E6000A795F0405395C9F77EF41F16BA0B620B75
:102E7000730B840BBAF09150A1F0FF0FBB1F661FBC
:102E8000771F881FC2F70EC0BA0F621F731F841FFF
:102E900048F4879577956795B795F7959E3F08F025
:102EA000B0CF9395880F08F09927EE0F97958795E7
:102EB00008950E946D170C9498160E94911658F070
:102EC0000E948A1640F029F45F3F29F00C94811685
:102ED00051110C94CC160C9487160E94A91668F315
:102EE0009923B1F3552391F3951B550BBB27AA27C3
:102EF00062177307840738F09F5F5F4F220F331FFD
:102F0000441FAA1FA9F335D00E2E3AF0E0E832D0C4
:102F100091505040E695001CCAF72BD0FE2F29D0C7
:102F2000660F771F881FBB1F261737074807AB0799
:102F3000B0E809F0BB0B802DBF01FF2793585F4F0E
:102F40003AF09E3F510578F00C9481160C94CC1603
:102F50005F3FE4F3983ED4F3869577956795B795F0
:102F6000F7959F5FC9F7880F911D9695879597F9FB
:102F70000895E1E0660F771F881FBB1F6217730774
:102F80008407BA0720F0621B730B840BBA0BEE1F89
:102F900088F7E09508950E94D2176894B1110C94B7
:102FA000CC1608950E94B11688F09F5798F0B92F5B
:102FB0009927B751B0F0E1F0660F771F881F991F6E
:102FC0001AF0BA95C9F714C0B13091F00E94CB162F
:102FD000B1E008950C94CB16672F782F8827B85F3F
:102FE00039F0B93FCCF3869577956795B395D9F7C6
:102FF0003EF490958095709561957F4F8F4F9F4FD0
:1030000008950E94F01508F48FEF08950E94F015BE
:10301000880B990B0895A1E21A2EAA1BBB1BFD0178
:103020000DC0AA1FBB1FEE1FFF1FA217B307E407A7
:10303000F50720F0A21BB30BE40BF50B661F771FFF
:10304000881F991F1A9469F76095709580959095DF
:103050009B01AC01BD01CF010895EE0FFF1F05904C
:10306000F491E02D09940F931F93CF93DF93823057
:10307000910510F482E090E0E0918105F0918205E5
:1030800030E020E0B0E0A0E0309799F42115310560
:1030900009F44AC0281B390B24303105D8F58A8140
:1030A0009B816115710589F1FB0193838283FE0188
:1030B00011C0408151810281138148175907E0F006
:1030C0004817590799F4109761F012960C931297CC
:1030D00013961C933296CF01DF91CF911F910F91E0
:1030E00008950093810510938205F4CF21153105D1
:1030F00051F04217530738F0A901DB019A01BD01D5
:10310000DF01F801C1CFEF01F9CF909382058093E1
:103110008105CDCFFE01E20FF31F819391932250E1
:10312000310939832883D7CF20917F0530918005DD
:10313000232B41F42091020130910301309380054B
:1031400020937F0520910001309101012115310567
:1031500041F42DB73EB74091040150910501241B65
:10316000350BE0917F05F0918005E217F307A0F49D
:103170002E1B3F0B2817390778F0AC014E5F5F4FCD
:103180002417350748F04E0F5F1F5093800540937A
:103190007F05819391939FCFF0E0E0E09CCFCF93A8
:1031A000DF930097E9F0FC01329713821282A0911D
:1031B0008105B0918205ED0130E020E01097A1F487
:1031C00020813181820F931F20917F0530918005EE
:1031D0002817390709F061C0F0938005E0937F0557
:1031E000DF91CF910895EA01CE17DF07E8F54A8114
:1031F0005B819E0141155105B1F7E901FB83EA832B
:1032000049915991C40FD51FEC17FD0761F48081D6
:1032100091810296840F951FE901998388838281A9
:1032200093819B838A83F0E0E0E012968D919C91DC
:1032300013970097B9F52D913C911197CD01029606
:10324000820F931F20917F05309180052817390741
:1032500039F6309751F51092820510928105B0939E
:103260008005A0937F05BCCFD383C2834081518169
:10327000840F951FC817D90761F44E5F5F4F88818F
:103280009981480F591F518340838A819B81938381
:1032900082832115310509F0B0CFF0938205E093C8
:1032A00081059ECFFD01DC01C0CF13821282D7CFF2
:1032B000FB01DC014150504048F001900D9200208C
:1032C000C9F701C01D9241505040E0F70895F894AD
:0232D000FFCF2E
:1032D200000083058000000000005401B400E100FA
:1032E200A1011201F0000401000000007104440475
:1032F200A5042D043D048C002E0400000000F905F5
:10330200B80BFA054E09AB0A00000000F905BA0B2A
:10331200FA05CE09270B0D0A00454E54524F55208F
:103322004E4F2052454C41592020202D2D2D2D202D
:103332003E20006E616E00696E66006F7666004424
:1033420048543131004448543132004448543231F7
:10335200004448543232004448543F00416374757B
:10336200616C20686F7572202D2D2D3E003A004849
:103372006F757220626567696E202D2D2D3E0048A3
:103382006F757220656E64202D2D2D3E00456E7482
:10339200726F75206E6F204946203C3D00213D3002
:1033A200003D3D3000456E74726F75206E6F20498E
:1033B20046203E3D0072656C61795F6C6967687496
:1033C20020736574204F4E004C4F47474544206997
:1033D2006E2074686520454C5345202D2D200072C7
:1033E200656C61795F6C6967687420736574204FDE
:1033F20046460074696D655F6E6F772000202D2D43
:103402002D3E2020004E65787420636865636B2032
:10341200525443004144442031205345434F4E44CB
:103422005320696E204C49474854204F4E00414476
:10343200442031205345434F4E445320696E204C63
:1034420049474854204F46460054494D4520494E6D
:10345200204E45572054494D455F504552494F44EF
:103462005F4441524B202D2D2D3E0054494D4520A5
:10347200494E204E45572054494D455F50455249CB
:103482004F445F4441524B5F4E4F572D2D2D3E000E
:1034920048756D69646974793D20002020202054AC
:1034A200656D70657261747572653D200054454D9D
:1034B2005045524154555245204E4F524D414C2099
:1034C20020202052656C61792046616E204C4F5756
:1034D20020202D2D2D202052656C61792046616EB1
:1034E200204C4F570052656C6179204865617465C4
:1034F2007220484947480052656C61792046616EE6
:103502002048494748004543484F202D2D2D2D2D59
:103512003E20200020636D200074696D655F706538
:0A35220072696F645F736F696C00DB
:107800000C94343C0C94513C0C94513C0C94513CE1
:107810000C94513C0C94513C0C94513C0C94513CB4
:107820000C94513C0C94513C0C94513C0C94513CA4
:107830000C94513C0C94513C0C94513C0C94513C94
:107840000C94513C0C94513C0C94513C0C94513C84
:107850000C94513C0C94513C0C94513C0C94513C74
:107860000C94513C0C94513C11241FBECFEFD8E036
:10787000DEBFCDBF11E0A0E0B1E0ECE9FFE702C060
:1078800005900D92A230B107D9F712E0A2E0B1E065
:1078900001C01D92AD30B107E1F70E942D3D0C945F
:1078A000CC3F0C94003C982F959595959595959582
:1078B000905D8F708A307CF0282F295A8091C0000B
:1078C00085FFFCCF9093C6008091C00085FFFCCF60
:1078D0002093C6000895282F205DF0CF982F809127
:1078E000C00085FFFCCF9093C6000895EF92FF92F1
:1078F0000F931F93EE24FF2487018091C00087FD22
:1079000017C00894E11CF11C011D111D81E4E8164B
:1079100082E4F8068FE0080780E0180770F3E09132
:107920000401F091050109958091C00087FFE9CF1E
:107930008091C6001F910F91FF90EF9008950E94D3
:10794000763C982F8091C00085FFFCCF9093C600B5
:1079500091362CF490330CF09053892F089597555D
:10796000892F08951F930E949F3C182F0E949F3CCF
:107970001295107F810F1F9108951F93182F882350
:1079800021F00E94763C1150E1F71F9108951F935A
:10799000182F0E94763C803249F0809103018F5F5E
:1079A000809303018530C1F01F9108958091C0003C
:1079B00085FFFCCF84E18093C6008091C00085FFE5
:1079C000FCCF1093C6008091C00085FFFCCF80E102
:1079D0008093C6001F910895E0910401F091050184
:1079E00009951F9108950E94763C803241F0809164
:1079F00003018F5F80930301853081F008958091AA
:107A0000C00085FFFCCF84E18093C6008091C00058
:107A100085FFFCCF80E18093C6000895E0910401CA
:107A2000F09105010995089540E951E08823A1F0FE
:107A30002D9A28EE33E0FA013197F1F721503040CA
:107A4000D1F72D9828EE33E0FA013197F1F7215064
:107A50003040D1F7815061F708953F924F925F9285
:107A60006F927F928F929F92AF92BF92CF92DF924E
:107A7000EF92FF920F931F93CF93DF93000080E16B
:107A80008093C4001092C50088E18093C10086E015
:107A90008093C2005098589A259A81E00E94143D24
:107AA00024E1F22E9EE1E92E85E9D82E0FE0C02ECA
:107AB00010E1B12EAA24A394B1E49B2EA6E58A2E50
:107AC000F2E57F2EE0E26E2E79E4572E63E5462E36
:107AD00050E5352E0E94763C8033B1F18133B9F107
:107AE000803409F46FC0813409F476C0823409F41B
:107AF00085C0853409F488C0803531F1823521F1A3
:107B0000813511F1853509F485C0863509F48DC0BC
:107B1000843609F496C0843709F403C1853709F423
:107B200072C1863709F466C0809103018F5F80932C
:107B30000301853079F6E0910401F0910501099582
:107B40000E94763C803351F60E94F33CC3CF0E94E2
:107B5000763C803249F78091C00085FFFCCFF092DF
:107B6000C6008091C00085FFFCCF9092C600809136
:107B7000C00085FFFCCF8092C6008091C00085FFC9
:107B8000FCCF7092C6008091C00085FFFCCF609250
:107B9000C6008091C00085FFFCCF5092C600809146
:107BA000C00085FFFCCF4092C6008091C00085FFD9
:107BB000FCCF3092C6008091C00085FFFCCFB09210
:107BC000C60088CF0E94763C863808F4BDCF0E945C
:107BD000763C0E94F33C7ECF0E94763C803809F4CC
:107BE0009CC0813809F40BC1823809F43CC1883942
:107BF00009F48FC080E00E94C73C6CCF84E10E94F2
:107C0000BD3C0E94F33C66CF85E00E94BD3C0E94D3
:107C1000F33C60CF0E94763C809306010E94763C44
:107C2000809307010E94F33C55CF0E94763C80333D
:107C300009F41DC183E00E94BD3C80E00E94C73C66
:107C400049CF0E94763C809309020E94763C809343
:107C5000080280910C028E7F80930C020E94763C79
:107C6000853409F415C18091080290910902892B8D
:107C700089F000E010E00E94763CF801E85FFE4FDA
:107C800080830F5F1F4F80910802909109020817AF
:107C9000190788F30E94763C803209F045CF809125
:107CA0000C0280FF01C16091060170910701660F0F
:107CB000771F7093070160930601A0910802B091AD
:107CC00009021097C9F0E8E0F1E09B01AD014E0F09
:107CD0005F1FF999FECF32BD21BD819180BDFA9A17
:107CE000F99A2F5F3F4FE417F50799F76A0F7B1F4B
:107CF00070930701609306018091C00085FFFCCF5F
:107D0000F092C6008091C00085FFFCCFB092C60003
:107D1000E1CE83E00E94C73CDDCE82E00E94C73CFA
:107D2000D9CE0E94763C809309020E94763C8093D3
:107D300008028091060190910701880F991F909386
:107D40000701809306010E94763C853409F4A6C0A1
:107D500080910C028E7F80930C020E94763C8032D0
:107D600009F0B8CE8091C00085FFFCCFF092C6002C
:107D7000609108027091090261157105B9F140E046
:107D800050E080910C02A82FA170B82FB27011C0E2
:107D9000BB2309F45CC0E0910601F0910701319624
:107DA000F0930701E09306014F5F5F4F46175707B7
:107DB000E8F4AA2369F3F999FECF209106013091E6
:107DC000070132BD21BDF89A90B58091C00085FFB2
:107DD000FCCF9093C6002F5F3F4F30930701209355
:107DE00006014F5F5F4F4617570718F38091C00099
:107DF00085FDE5CE8091C00085FFF8CFE0CE81E023
:107E00000E94C73C67CE0E94763C803209F08CCE3F
:107E10008091C00085FFFCCFF092C6008091C00029
:107E200085FFFCCFE092C6008091C00085FFFCCFAB
:107E3000D092C6008091C00085FFFCCFC092C600E2
:107E40008091C00085FFFCCFB092C60043CEE09188
:107E50000601F091070194918091C00085FFFCCF4D
:107E60009093C6009CCF80E10E94C73C33CE0E9415
:107E7000763C0E94763C182F0E94763C112309F430
:107E800083C0113009F484C08FE00E94C73C22CE29
:107E900080910C02816080930C02E5CE80910C02EF
:107EA000816080930C0259CF809107018823880F4D
:107EB000880B8A2180930B02809106019091070123
:107EC000880F991F90930701809306018091080203
:107ED00080FF09C080910802909109020196909359
:107EE000090280930802F894F999FECF1127E091D6
:107EF0000601F0910701C8E0D1E08091080290915D
:107F00000902103091F40091570001700130D9F34B
:107F100003E000935700E89500915700017001308D
:107F2000D9F301E100935700E89509901990009169
:107F3000570001700130D9F301E000935700E89534
:107F40001395103498F011270091570001700130FB
:107F5000D9F305E000935700E895009157000170B0
:107F60000130D9F301E100935700E895329602976A
:107F700009F0C7CF103011F00296E5CF112480919F
:107F8000C00085FFB9CEBCCE8EE10E94C73CA2CD19
:0C7F900085E90E94C73C9ECDF894FFCF0D
:027F9C00800063
:040000030000780081
:00000001FF
